{
  "_format": "hh-sol-artifact-1",
  "contractName": "PoolFactory",
  "sourceName": "contracts/PoolFactory.sol",
  "abi": [
    {
      "inputs": [
        {
          "internalType": "contract ISuperfluid",
          "name": "_host",
          "type": "address"
        }
      ],
      "stateMutability": "nonpayable",
      "type": "constructor"
    },
    {
      "anonymous": false,
      "inputs": [
        {
          "indexed": false,
          "internalType": "address",
          "name": "_token0",
          "type": "address"
        },
        {
          "indexed": false,
          "internalType": "address",
          "name": "_token1",
          "type": "address"
        },
        {
          "indexed": false,
          "internalType": "address",
          "name": "_pool",
          "type": "address"
        }
      ],
      "name": "PoolCreated",
      "type": "event"
    },
    {
      "inputs": [
        {
          "internalType": "address",
          "name": "",
          "type": "address"
        }
      ],
      "name": "accountPoolList",
      "outputs": [
        {
          "internalType": "uint256",
          "name": "index",
          "type": "uint256"
        }
      ],
      "stateMutability": "view",
      "type": "function"
    },
    {
      "inputs": [
        {
          "internalType": "address",
          "name": "_account",
          "type": "address"
        }
      ],
      "name": "addAccountPool",
      "outputs": [],
      "stateMutability": "nonpayable",
      "type": "function"
    },
    {
      "inputs": [
        {
          "internalType": "address",
          "name": "_tokenA",
          "type": "address"
        },
        {
          "internalType": "address",
          "name": "_tokenB",
          "type": "address"
        },
        {
          "internalType": "uint112",
          "name": "_flowIn0",
          "type": "uint112"
        },
        {
          "internalType": "uint112",
          "name": "_flowIn1",
          "type": "uint112"
        }
      ],
      "name": "createPool",
      "outputs": [
        {
          "internalType": "address",
          "name": "pool",
          "type": "address"
        }
      ],
      "stateMutability": "nonpayable",
      "type": "function"
    },
    {
      "inputs": [
        {
          "internalType": "address",
          "name": "",
          "type": "address"
        },
        {
          "internalType": "address",
          "name": "",
          "type": "address"
        }
      ],
      "name": "getPool",
      "outputs": [
        {
          "internalType": "address",
          "name": "",
          "type": "address"
        }
      ],
      "stateMutability": "view",
      "type": "function"
    },
    {
      "inputs": [],
      "name": "host",
      "outputs": [
        {
          "internalType": "contract ISuperfluid",
          "name": "",
          "type": "address"
        }
      ],
      "stateMutability": "view",
      "type": "function"
    },
    {
      "inputs": [],
      "name": "parameters",
      "outputs": [
        {
          "internalType": "contract ISuperfluid",
          "name": "host",
          "type": "address"
        },
        {
          "internalType": "contract ISuperToken",
          "name": "token0",
          "type": "address"
        },
        {
          "internalType": "contract ISuperToken",
          "name": "token1",
          "type": "address"
        },
        {
          "internalType": "uint112",
          "name": "flowIn0",
          "type": "uint112"
        },
        {
          "internalType": "uint112",
          "name": "flowIn1",
          "type": "uint112"
        }
      ],
      "stateMutability": "view",
      "type": "function"
    },
    {
      "inputs": [
        {
          "internalType": "int256",
          "name": "_agreementDynamicBalance",
          "type": "int256"
        },
        {
          "internalType": "address",
          "name": "_token",
          "type": "address"
        },
        {
          "internalType": "address",
          "name": "_account",
          "type": "address"
        },
        {
          "internalType": "uint256",
          "name": "_timestamp",
          "type": "uint256"
        },
        {
          "internalType": "uint256",
          "name": "_initialTimestamp",
          "type": "uint256"
        }
      ],
      "name": "realtimeBalanceOf",
      "outputs": [
        {
          "internalType": "int256",
          "name": "realtimeBalance",
          "type": "int256"
        }
      ],
      "stateMutability": "view",
      "type": "function"
    },
    {
      "inputs": [
        {
          "internalType": "address",
          "name": "_account",
          "type": "address"
        },
        {
          "internalType": "address",
          "name": "_pool",
          "type": "address"
        }
      ],
      "name": "removeAccountPool",
      "outputs": [],
      "stateMutability": "nonpayable",
      "type": "function"
    }
  ],
  "bytecode": "0x608060405234801561001057600080fd5b5060405161370638038061370683398101604081905261002f91610054565b600480546001600160a01b0319166001600160a01b0392909216919091179055610084565b60006020828403121561006657600080fd5b81516001600160a01b038116811461007d57600080fd5b9392505050565b613673806100936000396000f3fe60806040523480156200001157600080fd5b5060043610620000935760003560e01c80639d3f0e4411620000625780639d3f0e4414620001685780639e88c7a6146200018e578063a2c2b30a14620001a5578063f437bc5914620001cb57600080fd5b806313ce5d571462000098578063300cbd1314620000b1578063531aa03e14620000c857806389035730146200011c575b600080fd5b620000af620000a936600462000d84565b620001df565b005b620000af620000c236600462000da9565b620002b1565b620000ff620000d936600462000da9565b60066020908152600092835260408084209091529082529020546001600160a01b031681565b6040516001600160a01b0390911681526020015b60405180910390f35b60005460015460025460035462000155936001600160a01b039081169381169216906001600160701b0380821691600160701b90041685565b6040516200011395949392919062000de1565b6200017f6200017936600462000e1d565b62000444565b60405190815260200162000113565b620000ff6200019f36600462000e88565b620008d1565b6200017f620001b636600462000d84565b6005602052600090815260409020600a015481565b600454620000ff906001600160a01b031681565b6001600160a01b038116600052600560205262000200565b60405180910390fd5b6001600160a01b038116600090815260056020526040808220815161018081018352918290810182600a8282826020028201915b81546001600160a01b03168152600190910190602001808311620002345750505050508152602001600a8201548152505090503381600001518260200151600a811062000285576200028562000ee5565b6001600160a01b03909216602092830291909101528101805190620002aa8262000f11565b9052505050565b6001600160a01b038216600090815260056020526040808220815161018081018352918290810182600a8282826020028201915b81546001600160a01b03168152600190910190602001808311620002e5575050509183525050600a9182015460209091015281519192509060005b828110156200043c57846001600160a01b03168282600a811062000348576200034862000ee5565b60200201516001600160a01b0316036200042757805b6200036b60018562000f2d565b811015620003d657826200038182600162000f47565b600a811062000394576200039462000ee5565b60200201518382600a8110620003ae57620003ae62000ee5565b6001600160a01b03909216602092909202015280620003cd8162000f11565b9150506200035e565b5081620003e560018562000f2d565b600a8110620003f857620003f862000ee5565b6020020160006001600160a01b03168152508360200180518091906200041e9062000f62565b9052506200043c565b80620004338162000f11565b91505062000320565b505050505050565b60006200046a604051806060016040528060388152602001620036066038913962000be8565b620004ab6040518060400160405280601a81526020017f5f61677265656d656e7444796e616d696342616c616e63653a200000000000008152508762000c32565b620004d76040518060400160405280600881526020016702fba37b5b2b71d160c51b8152508662000c7f565b620005056040518060400160405280600a81526020016902fb0b1b1b7bab73a1d160b51b8152508562000c7f565b620005356040518060400160405280600c81526020016b02fba34b6b2b9ba30b6b81d160a51b8152508462000c32565b6200056c6040518060400160405280601381526020017202fb4b734ba34b0b62a34b6b2b9ba30b6b81d1606d1b8152508362000c32565b6001600160a01b038416600090815260056020526040808220815161018081018352918290810182600a8282826020028201915b81546001600160a01b03168152600190910190602001808311620005a0575050509183525050600a919091015460209182015281515160408051808201909152601181527001b971030b1b1b7bab73a2837b7b6399d1607d1b928101929092529192506200060f908262000c7f565b60408051808201909152601781527f382e206163636f756e74506f6f6c734c656e6774683a200000000000000000006020820152600a9062000652908262000c32565b60008111620006a45760405162461bcd60e51b815260206004820152601d60248201527f41717565647563743a204e4f5f504f4f4c535f4153534f4349415445440000006044820152606401620001f7565b60005b81811015620008c457620006d4604051806060016040528060388152602001620035ce6038913962000be8565b835160009082600a8110620006ed57620006ed62000ee5565b6020020151604051633d85eec960e01b81526001600160a01b038c811660048301528b8116602483015290911690633d85eec990604401602060405180830381865afa15801562000742573d6000803e3d6000fd5b505050506040513d601f19601f8201168201806040525081019062000768919062000f7c565b9050620007a96040518060400160405280600d81526020016c03732ba233637bba930ba329d1609d1b815250826bffffffffffffffffffffffff1662000c32565b845160009083600a8110620007c257620007c262000ee5565b6020020151604051636bca129360e01b81526001600160a01b038d811660048301528c81166024830152604482018c905290911690636bca129390606401602060405180830381865afa1580156200081e573d6000803e3d6000fd5b505050506040513d601f19601f8201168201806040525081019062000844919062000fa1565b90506200085c62000856898b62000f2d565b62000cc8565b82600b0b6200086c919062000fbb565b62000878908d6200104c565b9b50600160701b6200088f82600b85900b62000fbb565b6200089b919062001091565b620008a7908d620010d1565b9b508b965050508080620008bb9062000f11565b915050620006a7565b5050505095945050505050565b6000836001600160a01b0316856001600160a01b031603620009365760405162461bcd60e51b815260206004820152601d60248201527f41717565647563743a204944454e544943414c5f4144445245535345530000006044820152606401620001f7565b600080856001600160a01b0316876001600160a01b0316106200095b5785876200095e565b86865b90925090506001600160a01b038216620009b45760405162461bcd60e51b815260206004820152601660248201527541717565647563743a205a45524f5f4144445245535360501b6044820152606401620001f7565b6001600160a01b0382811660009081526006602090815260408083208585168452909152902054161562000a235760405162461bcd60e51b815260206004820152601560248201527441717565647563743a20504f4f4c5f45584953545360581b6044820152606401620001f7565b6040805160a0810182526004546001600160a01b0390811680835285821660208085018290529286168486018190526001600160701b038b811660608701819052908b166080909601869052600080546001600160a01b0319908116861790915560018054821690941790935560028054909316909117909155600380546001600160e01b031916909117600160701b9094029390931790925591518492849262000ad9929091859185918c918c910162000de1565b6040516020818303038152906040528051906020012060405162000afd9062000d59565b8190604051809103906000f590508015801562000b1e573d6000803e3d6000fd5b50600080546001600160a01b0319908116825560018054821690556002805482169055600380546001600160e01b03191690556001600160a01b038781168084526006602081815260408087208b86168089529083528188208054968a1696881687179055928252808720848852825295869020805490951684179094558451918252928101929092528183015290519196507f9c5d829b9b23efc461f9aeef91979ec04bb903feb3bee4f26d22114abfc7335b919081900360600190a150505050949350505050565b62000c2f8160405160240162000bff919062001168565b60408051601f198184030181529190526020810180516001600160e01b031663104c13eb60e21b17905262000d38565b50565b62000c7b828260405160240162000c4b9291906200117d565b60408051601f198184030181529190526020810180516001600160e01b03166309710a9d60e41b17905262000d38565b5050565b62000c7b828260405160240162000c98929190620011a1565b60408051601f198184030181529190526020810180516001600160e01b031663319af33360e01b17905262000d38565b60006001600160ff1b0382111562000d345760405162461bcd60e51b815260206004820152602860248201527f53616665436173743a2076616c756520646f65736e27742066697420696e2061604482015267371034b73a191a9b60c11b6064820152608401620001f7565b5090565b80516a636f6e736f6c652e6c6f67602083016000808483855afa5050505050565b61240080620011ce83390190565b80356001600160a01b038116811462000d7f57600080fd5b919050565b60006020828403121562000d9757600080fd5b62000da28262000d67565b9392505050565b6000806040838503121562000dbd57600080fd5b62000dc88362000d67565b915062000dd86020840162000d67565b90509250929050565b6001600160a01b03958616815293851660208501529190931660408301526001600160701b039283166060830152909116608082015260a00190565b600080600080600060a0868803121562000e3657600080fd5b8535945062000e486020870162000d67565b935062000e586040870162000d67565b94979396509394606081013594506080013592915050565b80356001600160701b038116811462000d7f57600080fd5b6000806000806080858703121562000e9f57600080fd5b62000eaa8562000d67565b935062000eba6020860162000d67565b925062000eca6040860162000e70565b915062000eda6060860162000e70565b905092959194509250565b634e487b7160e01b600052603260045260246000fd5b634e487b7160e01b600052601160045260246000fd5b60006001820162000f265762000f2662000efb565b5060010190565b60008282101562000f425762000f4262000efb565b500390565b6000821982111562000f5d5762000f5d62000efb565b500190565b60008162000f745762000f7462000efb565b506000190190565b60006020828403121562000f8f57600080fd5b815180600b0b811462000da257600080fd5b60006020828403121562000fb457600080fd5b5051919050565b60006001600160ff1b038184138284138082168684048611161562000fe45762000fe462000efb565b600160ff1b600087128281168783058912161562001006576200100662000efb565b6000871292508782058712848416161562001025576200102562000efb565b878505871281841616156200103e576200103e62000efb565b505050929093029392505050565b60008083128015600160ff1b8501841216156200106d576200106d62000efb565b6001600160ff1b03840183138116156200108b576200108b62000efb565b50500390565b600082620010af57634e487b7160e01b600052601260045260246000fd5b600160ff1b821460001984141615620010cc57620010cc62000efb565b500590565b600080821280156001600160ff1b0384900385131615620010f657620010f662000efb565b600160ff1b839003841281161562001112576200111262000efb565b50500190565b6000815180845260005b81811015620011405760208185018101518683018201520162001122565b8181111562001153576000602083870101525b50601f01601f19169290920160200192915050565b60208152600062000da2602083018462001118565b60408152600062001192604083018562001118565b90508260208301529392505050565b604081526000620011b6604083018562001118565b905060018060a01b0383166020830152939250505056fe60e06040819052630890357360e41b8152339063890357309060e49060a090600481865afa15801562000036573d6000803e3d6000fd5b505050506040513d601f19601f820116820180604052508101906200005c919062000241565b600480546001600160e01b031916600160701b6001600160701b03938416026001600160701b03191617929091169190911790556001600160a01b0390811660c05290811660a052600380546001600160a01b031916929091169182179055620000ca57620000ca620002b9565b33608052600354604051635b69006f60e11b81527fa9214cc96615e0085d3bb077758db69497dc2dce3b2b1e97bc93c3d18d83efd360048201526001600160a01b039091169063b6d200de90602401602060405180830381865afa15801562000137573d6000803e3d6000fd5b505050506040513d601f19601f820116820180604052508101906200015d9190620002cf565b600280546001600160a01b039283166001600160a01b03199182168117909255604080518082018252600354909416808552602090940183905260008054831685179055600180549092169092179055516315a722b960e31b815264010000000160048201819052919063ad3915c890602401600060405180830381600087803b158015620001eb57600080fd5b505af115801562000200573d6000803e3d6000fd5b5050505050620002f6565b6001600160a01b03811681146200022157600080fd5b50565b80516001600160701b03811681146200023c57600080fd5b919050565b600080600080600060a086880312156200025a57600080fd5b855162000267816200020b565b60208701519095506200027a816200020b565b60408701519094506200028d816200020b565b92506200029d6060870162000224565b9150620002ad6080870162000224565b90509295509295909350565b634e487b7160e01b600052600160045260246000fd5b600060208284031215620002e257600080fd5b8151620002ef816200020b565b9392505050565b60805160a05160c05161204e620003b260003960008181610387015281816103cc015281816104a201528181610807015281816108d301528181610bd801528181610cdd01526113c9015260008181610167015281816103660152818161046701528181610565015281816107ac0152818161089801528181610a1601528181610b4d01528181610ca201528181610df40152818161136a01526113a301526000818161024e015281816109b60152610d94015261204e6000f3fe608060405234801561001057600080fd5b50600436106101375760003560e01c80635a3d5493116100b8578063884d1f401161007c578063884d1f40146102fb5780638fbc914b1461035c578063cbbc94cf14610364578063d21220a7146103c7578063d3112b2e146103ee578063d86ed3e51461040857600080fd5b80635a3d54931461028c5780635c079851146102955780635f9e7d77146102fb5780636afee0391461030e5780636bca12931461034957600080fd5b80633d02416a116100ff5780633d02416a146101fb5780633d85eec9146102235780634219dc401461024957806353c11f99146102705780635909c0d51461028357600080fd5b806302c1c33c1461013c5780630dfe168114610162578063215eed02146101a1578063230dbd29146101c857806330d9c915146101e8575b600080fd5b61014f61014a366004611673565b61041b565b6040519081526020015b60405180910390f35b6101897f000000000000000000000000000000000000000000000000000000000000000081565b6040516001600160a01b039091168152602001610159565b61014f7fa9214cc96615e0085d3bb077758db69497dc2dce3b2b1e97bc93c3d18d83efd381565b6101db6101d63660046116f5565b61042f565b604051610159919061181c565b6101db6101f636600461182f565b610651565b61020e6102093660046118ce565b6106b4565b60408051928352602083019190915201610159565b610236610231366004611673565b6107a8565b604051600b9190910b8152602001610159565b6101897f000000000000000000000000000000000000000000000000000000000000000081565b6101db61027e3660046116f5565b610869565b61014f60055481565b61014f60065481565b6102d36102a33660046118e7565b600760205260009081526040902080546001820154600290920154600b82810b93600160601b909304900b919084565b60408051600b95860b81529390940b6020840152928201526060810191909152608001610159565b6101db61030936600461182f565b610afd565b600454604080516001600160701b038084168252600160701b8404166020820152600160e01b90920463ffffffff1690820152606001610159565b61014f610357366004611904565b610b49565b61020e610c5e565b7f00000000000000000000000000000000000000000000000000000000000000007f00000000000000000000000000000000000000000000000000000000000000005b604080516001600160a01b03938416815292909116602083015201610159565b6101897f000000000000000000000000000000000000000000000000000000000000000081565b6000546001546103a7916001600160a01b03908116911682565b6101db6104163660046116f5565b610c73565b6000610428838342610b49565b9392505050565b6000546060906001600160a01b031633146104655760405162461bcd60e51b815260040161045c90611945565b60405180910390fd5b7f00000000000000000000000000000000000000000000000000000000000000006001600160a01b03168a6001600160a01b031614806104d657507f00000000000000000000000000000000000000000000000000000000000000006001600160a01b03168a6001600160a01b0316145b6104f25760405162461bcd60e51b815260040161045c90611987565b60408051606081018252600080825260208201819052918101919091526105198484610edf565b6001600160a01b0316808252610530908c90610f62565b600b0b6020820152610544858701876119cd565b81602001516105539190611a00565b600b0b60408201526001600160a01b037f00000000000000000000000000000000000000000000000000000000000000008116908c16036105bf57600454604082015182516105ba926001600160701b0380821693600160701b9092041691600090610fee565b6105ec565b600454604082015182516105ec926001600160701b0380821693600160701b909204169160009190610fee565b61064284848080601f016020809104026020016040519081016040528093929190818152602001838380828437600092019190915250508451915061063290508e611366565b60208501516000939291906113ee565b9b9a5050505050505050505050565b60405162461bcd60e51b815260206004820152602f60248201527f556e737570706f727465642063616c6c6261636b202d204265666f726520416760448201526e1c99595b595b9d0810dc99585d1959608a1b606482015260609060840161045c565b600080806106c764010000000085611a66565b6004549091506000906106e790600160e01b900463ffffffff1683611a7a565b60045460055460065490965094509091506001600160701b0380821691600160701b900416811580159061072457506000816001600160701b0316115b1561079f578263ffffffff1661074c8361073d84611413565b6001600160e01b03169061142c565b6001600160e01b031661075f9190611a9f565b6107699086611abe565b94508263ffffffff1661077f8261073d85611413565b6001600160e01b03166107929190611a9f565b61079c9087611abe565b95505b50505050915091565b60007f00000000000000000000000000000000000000000000000000000000000000006001600160a01b0316836001600160a01b03160361080557506001600160a01b038116600090815260076020526040902054600b0b610863565b7f00000000000000000000000000000000000000000000000000000000000000006001600160a01b0316836001600160a01b03160361086357506001600160a01b038116600090815260076020526040902054600160601b9004600b0b5b92915050565b6000546060906001600160a01b031633146108965760405162461bcd60e51b815260040161045c90611945565b7f00000000000000000000000000000000000000000000000000000000000000006001600160a01b03168a6001600160a01b0316148061090757507f00000000000000000000000000000000000000000000000000000000000000006001600160a01b03168a6001600160a01b0316145b6109235760405162461bcd60e51b815260040161045c90611987565b604080516060810182526000808252602082018190529181019190915261094a8484610edf565b6001600160a01b0316808252610961908c90610f62565b600b0b6020820152610975858701876119cd565b81602001516109849190611a00565b600b0b6040828101919091528151905163300cbd1360e01b81526001600160a01b0391821660048201523060248201527f00000000000000000000000000000000000000000000000000000000000000009091169063300cbd1390604401600060405180830381600087803b1580156109fc57600080fd5b505af1158015610a10573d6000803e3d6000fd5b505050507f00000000000000000000000000000000000000000000000000000000000000006001600160a01b03168b6001600160a01b031603610a7e5760045460408201518251610a79926001600160701b0380821693600160701b9092041691600090610fee565b610aab565b60045460408201518251610aab926001600160701b0380821693600160701b909204169160009190610fee565b61064284848080601f0160208091040260200160405190810160405280939291908181526020018383808284376000920191909152505084513092509050610af28f611366565b600093929190611441565b60606000610b0b8484610edf565b90506000610b198a83610f62565b60408051600b83900b60208201529192500160405160208183030381529060405292505050979650505050505050565b60007f00000000000000000000000000000000000000000000000000000000000000006001600160a01b0316846001600160a01b031603610bd6576000610b8f836106b4565b506001600160a01b038516600090815260076020526040902060010154909150610bc1610bbc8284611ad6565b611466565b9250610bcd8183611ad6565b92505050610428565b7f00000000000000000000000000000000000000000000000000000000000000006001600160a01b0316846001600160a01b031603610428576000610c1a836106b4565b6001600160a01b0386166000908152600760205260409020600201549092509050610c48610bbc8284611ad6565b9250610c548183611ad6565b9695505050505050565b600080610c6a426106b4565b90939092509050565b6000546060906001600160a01b03163314610ca05760405162461bcd60e51b815260040161045c90611945565b7f00000000000000000000000000000000000000000000000000000000000000006001600160a01b03168a6001600160a01b03161480610d1157507f00000000000000000000000000000000000000000000000000000000000000006001600160a01b03168a6001600160a01b0316145b610d2d5760405162461bcd60e51b815260040161045c90611987565b6040805160608101825260008082526020820181905291810191909152610d548484610edf565b6001600160a01b0316808252610d6b908c90610f62565b600b0b602082015280516040516313ce5d5760e01b81526001600160a01b0391821660048201527f0000000000000000000000000000000000000000000000000000000000000000909116906313ce5d5790602401600060405180830381600087803b158015610dda57600080fd5b505af1158015610dee573d6000803e3d6000fd5b505050507f00000000000000000000000000000000000000000000000000000000000000006001600160a01b03168b6001600160a01b031603610e5c5760045460208201518251610e57926001600160701b0380821693600160701b9092041691600090610fee565b610e89565b60045460208201518251610e89926001600160701b0380821693600160701b909204169160009190610fee565b61064284848080601f0160208091040260200160405190810160405280939291908181526020018383808284376000920191909152505084519150610ecf90508e611366565b6020850151600093929190611476565b600354604051631fb6491d60e11b81526000916001600160a01b031690633f6c923a90610f129086908690600401611aed565b600060405180830381865afa158015610f2f573d6000803e3d6000fd5b505050506040513d6000823e601f3d908101601f19168201604052610f579190810190611c13565b606001519392505050565b600254604051631cd43d1160e31b81526001600160a01b0384811660048301528381166024830152306044830152600092839291169063e6a1e88890606401608060405180830381865afa158015610fbe573d6000803e3d6000fd5b505050506040513d601f19601f82011682018060405250810190610fe29190611d1a565b50909695505050505050565b6000610fff64010000000042611a66565b60045490915060009061101f90600160e01b900463ffffffff1683611a7a565b6004549091506001600160701b03161580159061104d5750600454600160701b90046001600160701b031615155b1561117b5760008163ffffffff1611611064575060005b60045463ffffffff821690611091906001600160701b038082169161073d91600160701b90910416611413565b6001600160e01b03166110a49190611a9f565b600660008282546110b59190611abe565b909155505060045463ffffffff8216906110e5906001600160701b03600160701b820481169161073d9116611413565b6001600160e01b03166110f89190611a9f565b600560008282546111099190611abe565b9091555050600b85900b15611144576006546001600160a01b0384166000908152600760205260408082206002908101849055308352912001555b83600b0b60001461117b576005546001600160a01b0384166000908152600760205260408082206001908101849055308352912001555b84600b0b600014611232576001600160a01b03831660009081526007602052604090208054869190600c906111bb908490600160601b9004600b0b611d58565b82546001600160601b039182166101009390930a9283029190920219909116179055503060009081526007602052604090208054869190600c9061120a908490600160601b9004600b0b611a00565b92506101000a8154816001600160601b030219169083600b0b6001600160601b031602179055505b83600b0b6000146112d5576001600160a01b03831660009081526007602052604081208054869290611268908490600b0b611d58565b82546001600160601b039182166101009390930a92830291909202199091161790555030600090815260076020526040812080548692906112ad908490600b0b611a00565b92506101000a8154816001600160601b030219169083600b0b6001600160601b031602179055505b6004546112eb906001600160701b03168661149b565b600480546dffffffffffffffffffffffffffff19166001600160701b03928316179081905561132391600160701b909104168561149b565b6004805463ffffffff909416600160e01b026001600160e01b036001600160701b03938416600160701b0216929094169190911792909217909155505050505050565b60007f00000000000000000000000000000000000000000000000000000000000000006001600160a01b0316826001600160a01b0316146113c7577f0000000000000000000000000000000000000000000000000000000000000000610863565b7f000000000000000000000000000000000000000000000000000000000000000092915050565b604080516000815260208101909152606090610c5490879087908790879087906114de565b6000610863600160701b6001600160701b038416611da7565b60006104286001600160701b03831684611dd6565b604080516000815260208101909152606090610c5490879087908790879087906115e5565b6000610863600160701b83611dfc565b604080516000815260208101909152606090610c54908790879087908790879061162e565b60008082600b0b126114bf576114ba6001600160601b03831684611e10565b610428565b6114cb82600019611e3b565b610428906001600160601b031684611ed5565b855460018701546060916001600160a01b0390811691634329d2939116806350209a62888a8960005b6040519080825280601f01601f191660200182016040528015611531576020820181803683370190505b506040516024016115459493929190611ef5565b60408051808303601f1901815291815260208201805160e094851b6001600160e01b03909116179052519185901b6001600160e01b03191682526115929392509087908c90600401611f2b565b6000604051808303816000875af11580156115b1573d6000803e3d6000fd5b505050506040513d6000823e601f3d908101601f191682016040526115d99190810190611f80565b50979650505050505050565b855460018701546040805160008152602081019091526060926001600160a01b0390811692634329d29392911690819063b4b333c6906115459089908c908c9060448101611fe4565b855460018701546060916001600160a01b0390811691634329d2939116806362fc305e888a896000611507565b6001600160a01b038116811461167057600080fd5b50565b6000806040838503121561168657600080fd5b82356116918161165b565b915060208301356116a18161165b565b809150509250929050565b60008083601f8401126116be57600080fd5b50813567ffffffffffffffff8111156116d657600080fd5b6020830191508360208285010111156116ee57600080fd5b9250929050565b600080600080600080600080600060c08a8c03121561171357600080fd5b893561171e8161165b565b985060208a013561172e8161165b565b975060408a0135965060608a013567ffffffffffffffff8082111561175257600080fd5b61175e8d838e016116ac565b909850965060808c013591508082111561177757600080fd5b6117838d838e016116ac565b909650945060a08c013591508082111561179c57600080fd5b506117a98c828d016116ac565b915080935050809150509295985092959850929598565b60005b838110156117db5781810151838201526020016117c3565b838111156117ea576000848401525b50505050565b600081518084526118088160208601602086016117c0565b601f01601f19169290920160200192915050565b60208152600061042860208301846117f0565b600080600080600080600060a0888a03121561184a57600080fd5b87356118558161165b565b965060208801356118658161165b565b955060408801359450606088013567ffffffffffffffff8082111561188957600080fd5b6118958b838c016116ac565b909650945060808a01359150808211156118ae57600080fd5b506118bb8a828b016116ac565b989b979a50959850939692959293505050565b6000602082840312156118e057600080fd5b5035919050565b6000602082840312156118f957600080fd5b81356104288161165b565b60008060006060848603121561191957600080fd5b83356119248161165b565b925060208401356119348161165b565b929592945050506040919091013590565b60208082526022908201527f5265646972656374416c6c3a20737570706f7274206f6e6c79206f6e6520686f6040820152611cdd60f21b606082015260800190565b6020808252601e908201527f5265646972656374416c6c3a20746f6b656e206e6f7420696e20706f6f6c0000604082015260600190565b80600b0b811461167057600080fd5b6000602082840312156119df57600080fd5b8135610428816119be565b634e487b7160e01b600052601160045260246000fd5b600081600b0b83600b0b600081128160016001605f1b031901831281151615611a2b57611a2b6119ea565b8160016001605f1b03018313811615611a4657611a466119ea565b5090039392505050565b634e487b7160e01b600052601260045260246000fd5b600082611a7557611a75611a50565b500690565b600063ffffffff83811690831681811015611a9757611a976119ea565b039392505050565b6000816000190483118215151615611ab957611ab96119ea565b500290565b60008219821115611ad157611ad16119ea565b500190565b600082821015611ae857611ae86119ea565b500390565b60208152816020820152818360408301376000818301604090810191909152601f909201601f19160101919050565b634e487b7160e01b600052604160045260246000fd5b604051610160810167ffffffffffffffff81118282101715611b5657611b56611b1c565b60405290565b805160ff81168114611b6d57600080fd5b919050565b8051611b6d8161165b565b80516001600160e01b031981168114611b6d57600080fd5b600082601f830112611ba657600080fd5b815167ffffffffffffffff80821115611bc157611bc1611b1c565b604051601f8301601f19908116603f01168101908282118183101715611be957611be9611b1c565b81604052838152866020858801011115611c0257600080fd5b610c548460208301602089016117c0565b600060208284031215611c2557600080fd5b815167ffffffffffffffff80821115611c3d57600080fd5b908301906101608286031215611c5257600080fd5b611c5a611b32565b611c6383611b5c565b8152611c7160208401611b5c565b602082015260408301516040820152611c8c60608401611b72565b6060820152611c9d60808401611b7d565b608082015260a083015182811115611cb457600080fd5b611cc087828601611b95565b60a08301525060c083015160c082015260e083015160e0820152610100915081830151828201526101209150611cf7828401611b72565b828201526101409150611d0b828401611b72565b91810191909152949350505050565b60008060008060808587031215611d3057600080fd5b845193506020850151611d42816119be565b6040860151606090960151949790965092505050565b600081600b0b83600b0b600082128260016001605f1b0303821381151615611d8257611d826119ea565b8260016001605f1b0319038212811615611d9e57611d9e6119ea565b50019392505050565b60006001600160e01b0382811684821681151582840482111615611dcd57611dcd6119ea565b02949350505050565b60006001600160e01b0383811680611df057611df0611a50565b92169190910492915050565b600082611e0b57611e0b611a50565b500490565b60006001600160701b03808316818516808303821115611e3257611e326119ea565b01949350505050565b600081600b0b83600b0b60016001605f1b03600082136000841383830485118282161615611e6b57611e6b6119ea565b6b7fffffffffffffffffffffff196000851282811687830587121615611e9357611e936119ea565b60008712925085820587128484161615611eaf57611eaf6119ea565b85850587128184161615611ec557611ec56119ea565b5050509290910295945050505050565b60006001600160701b0383811690831681811015611a9757611a976119ea565b6001600160a01b03858116825284166020820152600b83900b6040820152608060608201819052600090610c54908301846117f0565b6001600160a01b0385168152608060208201819052600090611f4f908301866117f0565b8281036040840152611f6181866117f0565b90508281036060840152611f7581856117f0565b979650505050505050565b60008060408385031215611f9357600080fd5b825167ffffffffffffffff80821115611fab57600080fd5b611fb786838701611b95565b93506020850151915080821115611fcd57600080fd5b50611fda85828601611b95565b9150509250929050565b6001600160a01b038581168252848116602083015283166040820152608060608201819052600090610c54908301846117f056fea26469706673582212205a9771be26160de6753b05484fad46132b22104ca0f5f9783c27056551ec87cf64736f6c634300080e0033392e20456e7465726564207265616c74696d6542616c616e63654f6620666f72206c6f6f7020696e20506f6f6c466163746f72792e736f6c362e20456e7465726564207265616c74696d6542616c616e63654f662066756e6374696f6e20696e20506f6f6c466163746f72792e736f6ca2646970667358221220c814a5a4ca8dc9c167ef02cab0a6f4ecfbb62aaac30f6d7c214f8f0e1bff238264736f6c634300080e0033",
  "linkReferences": {},
  "deployedLinkReferences": {}
}